:100000000C9472000C949A000C949A000C949A0030
:100010000C949A000C949A000C949A000C949A00F8
:100020000C949A000C949A000C949A000C949A00E8
:100030000C949A000C949A000C949A000C949A00D8
:100040000C9403050C949A000C9473050C944D05C4
:100050000C949A000C949A000C949A000C949A00B8
:100060000C949A000C949A00005EBCE2613FDD8320
:10007000C29C7E20A3FD1F41009D23BE46DB65F888
:100080008C11AF32CA57E974000000002400270029
:100090002A0000000000250028002B0000000008B6
:1000A000000201000003040700000000000000003F
:1000B00000000000230026002900040404040404B6
:1000C0000404020202020202030303030303010207
:1000D00004081020408001020408102001020408D6
:1000E0001020A50511241FBECFEFD8E0DEBFCDBF85
:1000F00011E0A0E0B1E0E2EAF6E102C005900D9265
:10010000AA35B107D9F722E0AAE5B1E001C01D92F6
:10011000A333B207E1F710E0C2E7D0E004C02197B3
:10012000FE010E947F09C137D107C9F70E94EC0583
:100130000C944F0B0C94000090E0FC01E456FF4F30
:100140002491FC01E253FF4F3491FC01E654FF4F30
:10015000E491EE23C9F0222339F0233001F1A8F411
:10016000213019F1223029F1F0E0EE0FFF1FEE5699
:10017000FF4FA591B4918FB7F894EC91611126C00F
:1001800030953E233C938FBF08952730A9F0283047
:10019000C9F0243049F7809180008F7D03C08091A1
:1001A00080008F7780938000DFCF84B58F7784BD08
:1001B000DBCF84B58F7DFBCF8091B0008F778093AC
:1001C000B000D2CF8091B0008F7DF9CF3E2BDACF37
:1001D000CF93DF9390E0FC01E253FF4F24918654CC
:1001E0009F4FFC0184918823D1F090E0880F991FE4
:1001F000FC01E857FF4FA591B491FC01EE56FF4F6B
:10020000C591D49161110EC09FB7F8948C91E22FE3
:10021000E0958E238C932881E223E8839FBFDF91B2
:10022000CF9108958FB7F894EC91E22BEC938FBFA8
:10023000F6CFCF93DF93EC0160E08AE00E94E80004
:10024000E8EDF0E0E491E883E4ECF0E0E491F0E044
:10025000EE0FFF1FE055FF4F859194919A8389839C
:100260001B861D861C861A86198618861F821E828A
:100270001D821C821B82DF91CF9108953FB7F894B5
:1002800080915F0190916001A0916101B091620144
:1002900026B5A89B05C02F3F19F00196A11DB11DE1
:1002A0003FBFBA2FA92F982F8827BC01CD01620F1D
:1002B000711D811D911D42E0660F771F881F991FD8
:1002C0004A95D1F708958F929F92AF92BF92CF92A5
:1002D000DF92EF92FF926B017C010E943E014B0185
:1002E0005C01C114D104E104F104B9F00E943E01A3
:1002F000681979098A099B09683E7340810591054F
:1003000080F321E0C21AD108E108F10888EE880ED6
:1003100083E0981EA11CB11CE4CFFF90EF90DF900A
:10032000CF90BF90AF909F908F900895AF92BF9263
:10033000CF92DF92EF92FF920F931F93CF93DF93B1
:100340006C017B018B01040F151FEB015E01AE18E0
:10035000BF08C017D10759F06991D601ED91FC9102
:100360000190F081E02DC6010995892B79F7C5012F
:10037000DF91CF911F910F91FF90EF90DF90CF9081
:10038000BF90AF900895FC01538D448D252F30E030
:10039000842F90E0821B930B541710F0CF96089592
:1003A00001970895FC01918D828D981761F0A28DBF
:1003B000AE0FBF2FB11D5D968C91928D9F5F9F7385
:1003C000928F90E008958FEF9FEF0895FC01918D3B
:1003D000828D981731F0828DE80FF11D858D90E0A8
:1003E00008958FEF9FEF0895FC01918D228D892F45
:1003F00090E0805C9F4F821B91098F73992708952D
:1004000083E691E00E94F40121E0892B09F420E0C9
:10041000822F089580E090E0892B29F00E9400024D
:1004200081110C9400000895FC01A48DA80FB92F30
:10043000B11DA35ABF4F2C91848D90E001968F730C
:100440009927848FA689B7892C93A089B1898C912B
:10045000837080648C93938D848D981306C002887A
:10046000F389E02D80818F7D80830895EF92FF9244
:100470000F931F93CF93DF93EC0181E0888F9B8DC7
:100480008C8D98131AC0E889F989808185FF15C081
:100490009FB7F894EE89FF896083E889F9898081A4
:1004A0008370806480839FBF81E090E0DF91CF9173
:1004B0001F910F91FF90EF900895F62E0B8D10E095
:1004C0000F5F1F4F0F731127E02E8C8D8E110CC004
:1004D0000FB607FCFACFE889F989808185FFF5CF4F
:1004E000CE010E941402F1CFEB8DEC0FFD2FF11D18
:1004F000E35AFF4FF0829FB7F8940B8FEA89FB898C
:1005000080818062CFCFCF93DF93EC01888D8823E9
:10051000B9F0AA89BB89E889F9898C9185FD03C066
:10052000808186FD0DC00FB607FCF7CF8C9185FF4B
:10053000F2CF808185FFEDCFCE010E941402E9CF7A
:10054000DF91CF910895DC0180E0615090F09D91A2
:100550009827E92FEF70F0E0E859FF4F2491E92F39
:10056000E295EF70F0E0E858FF4FE491822F8E277C
:10057000ECCF0895DC012C911196ED91FC91F8944B
:100580008181822B81839281322F309593239283B4
:1005900087E090E00197F1F781818323818383E2F3
:1005A00090E00197F1F790817894EFECF0E03197CB
:1005B000F1F7922381E009F480E00895FC01908135
:1005C0000180F281E02D292F209560FF14C0F8945E
:1005D0008281822382838181892B8183A3E2B0E09F
:1005E0001197F1F78281982B9283789487ED90E0B0
:1005F0000197F1F70895F8948281822382838181A3
:10060000892B8183AFEFB0E01197F1F78281982BAE
:10061000928378948FE090E0EBCFDF92EF92FF929D
:100620000F931F93CF93DF93EC01D62EE42E08E0B7
:1006300010E0FF24F39461E08D2D8F2109F460E038
:10064000CE010E94DE02FF0C01501109A1F7E1105A
:1006500010C0F894E981FA8191818881809589237D
:100660008183E981FA8192818881809589238283BF
:100670007894DF91CF911F910F91FF90EF90DF90D1
:100680000895EF92FF920F931F93CF93DF938C0106
:100690007B0140E065E50E940D03E70188E0E80E7C
:1006A000F11C699140E0C8010E940D03CE15DF05E1
:1006B000C1F7DF91CF911F910F91FF90EF900895B7
:1006C000FC0190810180F281E02DF8948181292F35
:1006D00020958223818378943DE743E050E03150B8
:1006E00029F1DA011197F1F780818923C1F3F89498
:1006F0008281822382838181892B81837894ABE7F5
:10070000B7E01197F1F7F894818182238183A3E107
:10071000B1E01197F1F78081982381E009F080E042
:100720007894E3E6F6E03197F1F7089580E00895D4
:100730006F927F928F929F92AF92BF92CF92DF92F1
:10074000EF92FF920F931F93CF93DF938C01EB01F6
:100750008091090290910A020E946003882309F4A3
:100760003FC0B8018091090290910A020E944103A2
:1007700040E06EEB8091090290910A020E940D0305
:100780007E016E0189E0C80ED11C8E01A090090285
:10079000B0900A0288E0882E912C712C6624639414
:1007A000C5010E94BA0281117628660CE1E08E1A1A
:1007B0009108B1F7F80171928F01CE16DF0631F77B
:1007C0008091090290910A020E946003813041F4F5
:1007D000F70181917F01811105C0E017F107C1F791
:1007E00090E008C068E0CE010E94A30291E0288555
:1007F0002813F6CF892FDF91CF911F910F91FF9092
:10080000EF90DF90CF90BF90AF909F908F907F90B0
:100810006F900895FC0101900020E9F73197AF0136
:10082000481B590BBC0183E691E00C9496018F9212
:100830009F92AF92BF920F931F93CF93DF93CDB749
:10084000DEB7A1970FB6F894DEBF0FBECDBF19A2D9
:10085000423008F44AE08E010F5D1F4F842E912C28
:10086000B12CA12CA50194010E944909E62FB901E0
:10087000CA01EA30F4F4E05DD801EE938D01232B38
:10088000242B252B79F790E080E0109719F0CD010B
:100890000E940A04A1960FB6F894DEBF0FBECDBF2A
:1008A000DF91CF911F910F91BF90AF909F908F904C
:1008B0000895E95CE1CFBF92CF92DF92EF92FF9271
:1008C0000F931F93CF93DF93EC01B62EC72E8D8528
:1008D000811105C0CE010E94600381110EC01B86EC
:1008E0001D861C8680E0DF91CF911F910F91FF90B4
:1008F000EF90DF90CF90BF90089540E060EFCE0181
:100900000E940D0301E0E12CD12C11E0CE010E94E8
:10091000BA02F82ECE010E94BA0291E0F91218C074
:10092000813099F51134D8F2DB86D11002C081E014
:100930008D878B81882399F22396EB2DFC2DCF0197
:10094000089629912193E817F907D9F781E0CBCFD1
:10095000EE2DF0E0F8120FC08B851817A0F4DE0121
:10096000AE0FBF1F13968C91802379F4F12C1930B0
:1009700008F41C87D12EEC0FFD1F8381902F9095DA
:10098000892383830AC08113F1CFFE01EE0DF11D8F
:100990008381802B8383FF24F3946F2DCE010E94EB
:1009A000DE021F5F000F11F4E39401E087E08E1573
:1009B00008F0ACCFB7CFCF93DF93EC01E091090201
:1009C000F0910A0213861586148612861186108607
:1009D00017821682158214821382BC01809109024B
:1009E00090910A020E945B04982F882341F067E0EF
:1009F000CE010E94A30291E02F81281390E0892F5D
:100A0000DF91CF9108951F920F920FB60F9211248C
:100A10002F933F938F939F93AF93BF9380915B01ED
:100A200090915C01A0915D01B0915E0130915A01FD
:100A300023E0230F2D3758F50196A11DB11D2093FA
:100A40005A0180935B0190935C01A0935D01B09388
:100A50005E0180915F0190916001A0916101B09170
:100A600062010196A11DB11D80935F019093600109
:100A7000A0936101B0936201BF91AF919F918F915B
:100A80003F912F910F900FBE0F901F90189526E861
:100A9000230F0296A11DB11DD2CF1F920F920FB648
:100AA0000F9211242F933F934F935F936F937F93F4
:100AB0008F939F93AF93BF93EF93FF9383E691E060
:100AC0000E941402FF91EF91BF91AF919F918F917E
:100AD0007F916F915F914F913F912F910F900FBE3A
:100AE0000F901F9018951F920F920FB60F9211241E
:100AF0002F938F939F93EF93FF93E0917301F09166
:100B000074018081E0917901F0917A0182FD1BC02E
:100B1000908180917C018F5F8F7320917D0182177E
:100B200041F0E0917C01F0E0ED59FE4F958F80930C
:100B30007C01FF91EF919F918F912F910F900FBEAC
:100B40000F901F9018958081F4CFE3E6F1E01382B7
:100B5000128288EE93E0A0E0B0E084839583A683C0
:100B6000B7838AE091E09183808385EC90E095875C
:100B7000848784EC90E09787868780EC90E0918B67
:100B8000808B81EC90E0938B828B82EC90E0958B54
:100B9000848B86EC90E0978B868B118E128E138E51
:100BA000148E85E292E00E94190187E192E00E9492
:100BB0001901E0E0F2E0168A158A118287E192E0DD
:100BC0009287818717821086108289E0838381E073
:100BD0008483858386830895CF93DF93CDB7DEB773
:100BE00061970FB6F894DEBF0FBECDBF789484B581
:100BF000826084BD84B5816084BD85B5826085BD19
:100C000085B5816085BD80916E00816080936E00A6
:100C10001092810080918100826080938100809198
:100C20008100816080938100809180008160809349
:100C300080008091B10084608093B1008091B00009
:100C400081608093B00080917A00846080937A0004
:100C500080917A00826080937A0080917A0081602E
:100C600080937A0080917A00806880937A00109255
:100C7000C100E0917301F091740182E08083E09102
:100C80006F01F09170011082E0917101F091720199
:100C900080E1808310927B01E0917701F0917801EF
:100CA00086E08083E0917501F0917601808180611A
:100CB0008083E0917501F091760180818860808366
:100CC000E0917501F0917601808180688083E091E8
:100CD0007501F091760180818F7D808361E082E0F3
:100CE0000E94E80061E083E00E94E80061E082E0A9
:100CF0000E949C0062E070E080E090E00E9463014E
:100D0000E0910902F0910A02138615861486128674
:100D10001186108617821682158214821382109211
:100D200007021092080211E0BE01665F7F4F8091BA
:100D3000090290910A020E945B04882309F47AC098
:100D400067E0CE010A960E94A30299898913ECCF2D
:100D5000809107028F5F809307028A85883231F085
:100D600008F04EC0803111F08232F1F68091080215
:100D70008F5F8093080280910002811128C08091CA
:100D8000090290910A020E946003BE01665F7F4FD4
:100D90008091090290910A020E94410340E064EBB5
:100DA0008091090290910A020E940D03809109022C
:100DB00090910A020E94BA02082F80910902909134
:100DC0000A020E946003011102C0109300028A858A
:100DD000803109F1BE016F5F7F4FCE010A960E94FC
:100DE0009803882359F08D819A859B3311F487FDF0
:100DF00012C08F3391F058F48F31C1F080E00EC0F3
:100E00008B3309F4B3CF823409F08ECFAFCF8F3557
:100E100079F08F3799F78CE001C08AE09091030256
:100E2000981708F081CF809303027ECF89E0F6CF38
:100E30008BE0F4CF64E170E080E090E00E94630119
:100E400088E191E00E940A046091070270E090E05E
:100E500080E04AE00E94170487E291E00E940A04C1
:100E6000CE0101960E94DB04811108C08AE291E064
:100E70000E940A0487E291E00E940A048E010F5F3B
:100E80001F4F7E0129E0E20EF11CF80161918F01F4
:100E900070E090E080E040E10E9417048BE491E074
:100EA0000E940A040E151F0581F787E291E00E9457
:100EB0000A0400E010E08091090290910A020E9469
:100EC000600340E06CEC8091090290910A020E945C
:100ED0000D034091000264E48091090290910A029E
:100EE0000E940D038FB7F894C0905B01D0905C0115
:100EF000E0905D01F0905E018FBF80910402882335
:100F000029F180910502882309F4A7C0809100028D
:100F10008111A3C08091090290910A020E94BA0235
:100F20008130A1F02FB7F89480915B0190915C0122
:100F3000A0915D01B0915E012FBF8C199D09AE0992
:100F4000BF098E3E9240A105B10520F38CE391E0EC
:100F50000E940A046AE070E080E090E00E94630171
:100F6000CE010A960E94DB04882309F45CC1BE010D
:100F70006F5F7F4FCE010A960E949803882309F481
:100F800052C12A8160E070E0CB0127FF04C060E01D
:100F900070E088EF9FEF3A8589803B3309F086C087
:100FA0004D8147FF83C080FC3EC1912CB12CA12C08
:100FB00053E0880C991CAA1CBB1C5A95D1F77501EB
:100FC000640130EEC32237E0D322EE24FF24822EC8
:100FD000912CB12CA12CEBE0880C991CAA1CBB1CF9
:100FE000EA95D1F78C289D28AE28BF286829792951
:100FF0008A299B296138F4EE7F07FFEF8F079F074F
:101000000CF411C10E94280A20E030E040E05CE3CB
:101010000E94DD0A6B017C01AC019B010E944A0B1E
:10102000882309F406C18DE491E00E940A0487E256
:1010300091E00E940A0468EE73E080E090E00E9474
:1010400063010115110509F436CF0E9400028823BF
:1010500009F431CF0E9400002ECFE0910302E95045
:101060008EEE92E0E33038F4F0E0EE0FFF1FE05038
:10107000FF4F808191816C01F12CE12C8091010264
:10108000882329F060E0809102020E949C00C70141
:10109000B6010E94630180910102882309F456CFB2
:1010A00061E0809102020E949C0050CFC22ED12CA0
:1010B000DC2CCC24DD0CDD0CDD0CE8E08E9E400148
:1010C0001124C828D9280D2C000CEE08FF086C2923
:1010D0007D298E299F29303109F08CCF2885222344
:1010E00009F488CF6B017C0193E0CC0CDD1CEE1C75
:1010F000FF1C9A95D1F7F0E8CF22F7E0EF22FF240A
:1011000030E2C31AD108E108F108622F70E08F8144
:10111000FB01E81BF109CF019695982F8827979539
:1011200087950E943509072E000C880B990B6C0DD2
:101130007D1D8E1D9F1D5ECF2FEF3FEF4FE75FE4BC
:10114000C701B6010E94D80A18161CF485E591E083
:101150006CCF2FEF3FEF4FE75FECC701B6010E9466
:10116000F20987FDF3CF20E030E0A901C701B60105
:101170000E94F20987FF09C06DE283E691E00E94B8
:101180003602F7FAF094F7F8F0942AE037ED43EAE4
:101190005BE3C701B6010E9486094B015C010E9416
:1011A000F7096B017C010E94260A9B01AC01C50175
:1011B000B4010E9485094B015C014AE0C701B601F8
:1011C0000E9417046EE283E691E00E94360220E05E
:1011D00030E040E251E4C501B4010E94DD0A4B0158
:1011E0005C010E94F7096B01F12CE12C4AE0C70178
:1011F000B6010E941704C701B6010E94260A9B018E
:10120000AC01C501B4010E94850920E030E040E254
:1012100051E40E94DD0A0E94F70990E080E04AE074
:101220000E94170404CFC12CD12C8EEFE82E82EC43
:10123000F82E46015701E894B7F82FEF3FEF4FE73C
:101240005FE7C501B4010E944A0B811175CF2FEFF2
:101250003FEF4FE75FE7C501B4010E94F20918169E
:101260000CF06ACF81E591E0E0CE97FB072E16F4F3
:10127000009407D077FD09D00E946B0907FC05D0C8
:101280003EF4909581959F4F0895709561957F4F9D
:101290000895A1E21A2EAA1BBB1BFD010DC0AA1FB7
:1012A000BB1FEE1FFF1FA217B307E407F50720F0CF
:1012B000A21BB30BE40BF50B661F771F881F991F4A
:1012C0001A9469F760957095809590959B01AC0193
:1012D000BD01CF010895AA1BBB1B51E107C0AA1F86
:1012E000BB1FA617B70710F0A61BB70B881F991FC7
:1012F0005A95A9F780959095BC01CD010895EE0F00
:10130000FF1F0590F491E02D09945058BB27AA27A0
:101310000E949D090C949E0A0E94900A38F00E9437
:10132000970A20F039F49F3F19F426F40C948D0AA3
:101330000EF4E095E7FB0C94870AE92F0E94AF0AB0
:1013400058F3BA17620773078407950720F079F4FA
:10135000A6F50C94D10A0EF4E0950B2EBA2FA02D11
:101360000B01B90190010C01CA01A0011124FF2752
:10137000591B99F0593F50F4503E68F11A16F0404D
:10138000A22F232F342F4427585FF3CF469537954C
:101390002795A795F0405395C9F77EF41F16BA0B11
:1013A000620B730B840BBAF09150A1F0FF0FBB1FBF
:1013B000661F771F881FC2F70EC0BA0F621F731F08
:1013C000841F48F4879577956795B795F7959E3F65
:1013D00008F0B0CF9395880F08F09927EE0F9795F6
:1013E000879508950E94630A08F481E008950E9499
:1013F000B70A88F09F5798F0B92F9927B751B0F0E6
:10140000E1F0660F771F881F991F1AF0BA95C9F788
:1014100014C0B13091F00E94D10AB1E008950C944B
:10142000D10A672F782F8827B85F39F0B93FCCF3FE
:10143000869577956795B395D9F73EF49095809505
:10144000709561957F4F8F4F9F4F0895E89409C025
:1014500097FB3EF490958095709561957F4F8F4FE7
:101460009F4F9923A9F0F92F96E9BB279395F695FD
:10147000879577956795B795F111F8CFFAF4BB0F7B
:1014800011F460FF1BC06F5F7F4F8F4F9F4F16C0DF
:10149000882311F096E911C0772321F09EE8872F69
:1014A000762F05C0662371F096E8862F70E060E025
:1014B0002AF09A95660F771F881FDAF7880F96959E
:1014C000879597F90895990F0008550FAA0BE0E842
:1014D000FEEF16161706E807F907C0F012161306F6
:1014E000E407F50798F0621B730B840B950B39F436
:1014F0000A2661F0232B242B252B21F408950A269C
:1015000009F4A140A6958FEF811D811D089597F9DB
:101510009F6780E870E060E008959FEF80EC089599
:1015200000240A94161617061806090608950024C2
:101530000A9412161306140605060895092E03943C
:10154000000C11F4882352F0BB0F40F4BF2B11F4B0
:1015500060FF04C06F5F7F4F8F4F9F4F089557FD0F
:101560009058440F551F59F05F3F71F04795880F11
:1015700097FB991F61F09F3F79F0879508951216A8
:1015800013061406551FF2CF4695F1DF08C0161654
:1015900017061806991FF1CF869571056105089405
:1015A0000895E894BB2766277727CB0197F908951C
:1015B0000E94630A08F48FEF08950E94F00A0C94C9
:1015C0009E0A0E94900A38F00E94970A20F0952304
:1015D00011F00C94870A0C948D0A11240C94D20AF1
:1015E0000E94AF0A70F3959FC1F3950F50E0551F0D
:1015F000629FF001729FBB27F00DB11D639FAA2768
:10160000F00DB11DAA1F649F6627B00DA11D661FB6
:10161000829F2227B00DA11D621F739FB00DA11DD7
:10162000621F839FA00D611D221F749F3327A00D91
:10163000611D231F849F600D211D822F762F6A2F2D
:1016400011249F5750409AF0F1F088234AF0EE0F92
:10165000FF1FBB1F661F771F881F91505040A9F7BF
:101660009E3F510580F00C94870A0C94D20A5F3F8C
:10167000E4F3983ED4F3869577956795B795F795FB
:10168000E7959F5FC1F7FE2B880F911D9695879573
:1016900097F908950E94630A880B990B0895F894AE
:0216A000FFCF7A
:1016A2005E00BC0077010000000036029601C30113
:1016B2008302F401D201E601446576696365206321
:1016C2006F756E743A20000D0A0044657669636591
:1016D200206E6F7420666F756E640A0054656D70BB
:1016E200657261747572652069733A20006E616E6D
:0A16F20000696E66006F7666000066
:00000001FF
