:100000000C9462000C948A000C948A000C948A0070
:100010000C948A000C948A000C948A000C948A0038
:100020000C948A000C948A000C948A000C948A0028
:100030000C948A000C948A000C948A000C948A0018
:100040000C9403040C948A000C9473040C944D04D7
:100050000C948A000C948A000C948A000C948A00F8
:100060000C948A000C948A000000000024002700F1
:100070002A0000000000250028002B0000000008D6
:10008000000201000003040700000000000000005F
:1000900000000000230026002900040404040404D6
:1000A0000404020202020202030303030303010227
:1000B00004081020408001020408102001020408F6
:1000C0001020A50411241FBECFEFD8E0DEBFCDBFA6
:1000D00013E0A0E0B1E0E4E5F1E102C005900D928B
:1000E000A238B107D9F724E0A2E8B3E001C01D921D
:1000F000A733B207E1F710E0C2E6D0E004C02197D1
:10010000FE010E949508C136D107C9F70E940A0571
:100110000C94A8080C94000080912904E0912A0412
:10012000F0912B04F8949181982B91832281382FA0
:10013000309523232283A7E0B0E01197F1F7918156
:1001400093239183A3E2B0E01197F1F79081789423
:10015000EFECF0E03197F1F7982381E009F480E0CB
:1001600008950F931F93CF93DF9308E010E0C0E052
:10017000D1E00E948C008111CD2BDD0F01501109BF
:10018000C1F78C2FDF91CF911F910F91089590911E
:100190002904E0912A04F0912B04292F209580FF57
:1001A00014C0F8948281822382838181892B818388
:1001B000A3E2B0E01197F1F78281982B92837894B3
:1001C00087ED90E00197F1F70895F89482818223FA
:1001D00082838181892B8183AFEFB0E01197F1F7A2
:1001E0008281982B928378948FE090E0EBCF0F93ED
:1001F0001F93CF93DF93082FC8E0D0E011E081E098
:10020000902F912309F480E00E94C700110F2197DD
:10021000B1F7F894E0912A04F0912B049181809138
:100220002904809598239183E0912A04F0912B046E
:100230009281892382837894DF91CF911F910F91CE
:1002400008958CEC0C94F70080912904E0912A0425
:10025000F0912B04F8949181282F2095922391837B
:1002600078943DE743E050E0315029F1DA011197ED
:10027000F1F790819823C1F3F894928192239283AD
:100280009181982B91837894ABE7B7E01197F1F7C0
:10029000F894918192239183A3E1B1E01197F1F752
:1002A0009081982381E009F080E07894E3E6F6E01D
:1002B0003197F1F7089580E008950F931F93CF933E
:1002C000DF938C0185E50E94F700E801085F1F4F6E
:1002D00089910E94F700C017D107D1F7DF91CF9124
:1002E0001F910F91089590E0FC01E458FF4F249175
:1002F000FC01E255FF4F3491FC01E656FF4FE491BB
:10030000EE23C9F0222339F0233001F1A8F4213083
:1003100019F1223029F1F0E0EE0FFF1FEE58FF4FE8
:10032000A591B4918FB7F894EC91611126C03095E6
:100330003E233C938FBF08952730A9F02830C9F0A1
:10034000243049F7809180008F7D03C08091800028
:100350008F7780938000DFCF84B58F7784BDDBCF2C
:1003600084B58F7DFBCF8091B0008F778093B000F4
:10037000D2CF8091B0008F7DF9CF3E2BDACFCF93D3
:10038000DF9390E0FC01E255FF4F249186569F4F8A
:10039000FC0184918823D1F090E0880F991FFC0123
:1003A000E859FF4FA591B491FC01EE58FF4FC5915C
:1003B000D49161110EC09FB7F8948C91E22FE09513
:1003C0008E238C932881E223E8839FBFDF91CF9116
:1003D00008958FB7F894EC91E22BEC938FBFF6CF92
:1003E0003FB7F8948091880390918903A0918A0384
:1003F000B0918B0326B5A89B05C02F3F19F001963D
:10040000A11DB11D3FBFBA2FA92F982F8827BC016E
:10041000CD01620F711D811D911D42E0660F771F96
:10042000881F991F4A95D1F708958F929F92AF9296
:10043000BF92CF92DF92EF92FF924B015C010E943C
:10044000F0016B017C010E94F0016C197D098E099D
:100450009F09683E734081059105A8F321E0821A47
:100460009108A108B10888EEC80E83E0D81EE11CEF
:10047000F11C81149104A104B10429F7FF90EF90BD
:10048000DF90CF90BF90AF909F908F9008952FB73F
:10049000F894609184037091850380918603909114
:1004A00087032FBF0895AF92BF92CF92DF92EF9252
:1004B000FF920F931F93CF93DF936C017B018B010E
:1004C000040F151FEB015E01AE18BF08C017D1075E
:1004D00059F06991D601ED91FC910190F081E02DE8
:1004E000C6010995892B79F7C501DF91CF911F913D
:1004F0000F91FF90EF90DF90CF90BF90AF90089555
:10050000FC01538D448D252F30E0842F90E0821B19
:10051000930B541710F0CF96089501970895FC019E
:10052000918D828D981761F0A28DAE0FBF2FB11DF6
:100530005D968C91928D9F5F9F73928F90E008954E
:100540008FEF9FEF0895FC01918D828D981731F008
:10055000828DE80FF11D858D90E008958FEF9FEF5C
:100560000895FC01918D228D892F90E0805C9F4F32
:10057000821B91098F73992708958CE893E00E945C
:10058000B10221E0892B09F420E0822F089580E058
:1005900090E0892B29F00E94BD0281110C9400008B
:1005A0000895FC01A48DA80FB92FB11DA35ABF4F08
:1005B0002C91848D90E001968F739927848FA68962
:1005C000B7892C93A089B1898C91837080648C93B6
:1005D000938D848D981306C00288F389E02D808165
:1005E0008F7D80830895EF92FF920F931F93CF9397
:1005F000DF93EC0181E0888F9B8D8C8D98131AC05E
:10060000E889F989808185FF15C09FB7F894EE8944
:10061000FF896083E889F9898081837080648083A1
:100620009FBF81E090E0DF91CF911F910F91FF90EC
:10063000EF900895F62E0B8D10E00F5F1F4F0F7394
:100640001127E02E8C8D8E110CC00FB607FCFACF4F
:10065000E889F989808185FFF5CFCE010E94D1021A
:10066000F1CFEB8DEC0FFD2FF11DE35AFF4FF08220
:100670009FB7F8940B8FEA89FB8980818062CFCF86
:10068000CF93DF93EC01888D8823B9F0AA89BB89C9
:10069000E889F9898C9185FD03C0808186FD0DC0B4
:1006A0000FB607FCF7CF8C9185FFF2CF808185FFD5
:1006B000EDCFCE010E94D102E9CFDF91CF91089515
:1006C000FC0101900020E9F73197AF01481B590B5D
:1006D000BC018CE893E00C9453028F929F92AF92EE
:1006E000BF920F931F93CF93DF93CDB7DEB7A19740
:1006F0000FB6F894DEBF0FBECDBF19A2423008F48A
:100700004AE08E010F5D1F4F842E912CB12CA12C3D
:10071000A50194010E947308E62FB901CA01EA30CD
:10072000F4F4E05DD801EE938D01232B242B252BCF
:1007300079F790E080E0109719F0CD010E946003F6
:10074000A1960FB6F894DEBF0FBECDBFDF91CF915B
:100750001F910F91BF90AF909F908F900895E95C8B
:10076000E1CF0C946D03CF92DF92EF92FF92CF9383
:10077000DF936B017C016DE28CE893E00E94F30251
:10078000EC0166277727CB016C197D098E099F093B
:100790004AE00E946D038C0F9D1FDF91CF91FF9067
:1007A000EF90DF90CF9008950C946003CF93DF9388
:1007B000682F70E090E080E040E10E946D03EC0162
:1007C0008AE191E00E9460038C0F9D1FDF91CF9121
:1007D0000895CF93DF93BC01990F880B990B4AE0E2
:1007E0000E946D03EC018AE191E00E9460038C0F8E
:1007F0009D1FDF91CF910895BC01990F880B990B34
:100800004AE00C946D031F920F920FB60F921124C1
:100810002F933F938F939F93AF93BF9380918403C4
:1008200090918503A0918603B09187033091830353
:1008300023E0230F2D3758F50196A11DB11D2093FC
:1008400083038093840390938503A0938603B093DE
:1008500087038091880390918903A0918A03B091C6
:100860008B030196A11DB11D80938803909389038A
:10087000A0938A03B0938B03BF91AF919F918F9107
:100880003F912F910F900FBE0F901F90189526E863
:10089000230F0296A11DB11DD2CF1F920F920FB64A
:1008A0000F9211242F933F934F935F936F937F93F6
:1008B0008F939F93AF93BF93EF93FF938CE893E055
:1008C0000E94D102FF91EF91BF91AF919F918F91C3
:1008D0007F916F915F914F913F912F910F900FBE3C
:1008E0000F901F9018951F920F920FB60F92112420
:1008F0002F938F939F93EF93FF93E0919C03F0913D
:100900009D038081E091A203F091A30382FD1BC0AF
:1009100090818091A5038F5F8F732091A60382172A
:1009200041F0E091A503F0E0E457FC4F958F8093F0
:10093000A503FF91EF919F918F912F910F900FBE83
:100940000F901F9018958081F4CFECE8F3E01382AC
:10095000128288EE93E0A0E0B0E084839583A683C2
:10096000B7838CE091E09183808385EC90E095875C
:10097000848784EC90E09787868780EC90E0918B69
:10098000808B81EC90E0938B828B82EC90E0958B56
:10099000848B86EC90E0978B868B118E128E138E53
:1009A000148E60E08AE00E94BF01E8EBF0E0E49181
:1009B000A9E2B4E0EC93E4EAF0E0E491F0E0EE0FB9
:1009C000FF1FE057FF4F8591949112969C938E9351
:1009D00011971B961C921B971D961C921D971C9697
:1009E0001C921C971A961C921A9719961C9219978A
:1009F00018961C92189717961C92179716961C9289
:100A0000169715961C92159714961C921497139688
:100A10001C920895CF93DF93CDB7DEB760970FB6E2
:100A2000F894DEBF0FBECDBF789484B5826084BDDC
:100A300084B5816084BD85B5826085BD85B58160E2
:100A400085BD80916E00816080936E001092810060
:100A5000809181008260809381008091810081601B
:100A600080938100809180008160809380008091DC
:100A7000B10084608093B1008091B0008160809368
:100A8000B00080917A00846080937A0080917A002F
:100A9000826080937A0080917A00816080937A00EE
:100AA00080917A00806880937A001092C100E09172
:100AB0009C03F0919D0382E08083E0919803F09184
:100AC00099031082E0919A03F0919B0380E1808367
:100AD0001092A403E091A003F091A10386E080832B
:100AE000E0919E03F0919F03808180618083E0917B
:100AF0009E03F0919F03808188608083E0919E0334
:100B0000F0919F03808180688083E0919E03F09143
:100B10009F0380818F7D808361E082E00E94BF011E
:100B200061E083E00E94BF0161E082E00E94730106
:100B30005E0181E1A80EB11C30E0C32E30E0D32E5F
:100B40009924939488E0E0E0F1E0DE0119960190A9
:100B50000D928A95E1F710918203612F83E00E9444
:100B600073011925109382038DE191E0112311F097
:100B70008FE191E00E9460038AE191E00E946003AE
:100B800065E070E080E090E00E94150280913604FC
:100B9000811104C00E94240181112CC010923404E0
:100BA000109236041092350481E291E00E94D40341
:100BB00010923404109236041092350410923304CB
:100BC00010923204109231041092300410922F04CB
:100BD00010922E0410922D0410922C04C114D104F2
:100BE00009F4B0CF0E94BD02882309F4A9CF0E9466
:100BF0000000A6CF80EF0E94F70001E0E12C812CDD
:100C000011E00E948C00F82E0E948C0091E0F912F5
:100C100035C2813009F051C2113408F4BFCF80923F
:100C20003404811002C09092360480912C048823F1
:100C300009F4B4CFACE2B4E0FE0139968F018D9196
:100C40008193AE16BF06D9F785E391E00E94D403E5
:100C5000109234041092360410923504109233042A
:100C600010923204109231041092300410922F042A
:100C700010922E0410922D0410922C0461E070E06A
:100C800080E090E00E9415020E9447024AE050E096
:100C90000E94B10384E491E00E94D4030E942401E5
:100CA00062E070E080E090E00E9415020E9447023E
:100CB0004AE050E00E94B10384E691E00E94D40330
:100CC0000E94210163E070E080E090E00E94150244
:100CD0000E9447024AE050E00E94B10386E791E09B
:100CE0000E94D4038EE40E94F70087E30E94F7007D
:100CF00089E80E94F70083E10E94F70061E070E05C
:100D000080E090E00E9415020E9447024AE050E015
:100D10000E94B1038CE891E00E94D4030E94240158
:100D20000E9447024AE050E00E94B10384E691E04D
:100D30000E94D4030E94210161E070E080E090E015
:100D40000E9415020E9447024AE050E00E94B1034F
:100D50008BEA91E00E94D4038EEB0E94F70029E019
:100D6000E22EF12C0E94B100882E81EC91E00E94CD
:100D7000D40381E090E00E94FC038CEC91E00E949F
:100D8000D403882D0E94D60391E0E91AF10851F7A7
:100D90000E9447024AE050E00E94B10389ED91E0D1
:100DA0000E94D40361E070E080E090E00E941502B0
:100DB0000E9447024AE050E00E94B1038CE891E0B3
:100DC0000E94D4030E9424010E9447024AE050E09E
:100DD0000E94B10384EF91E00E94D40383E30E9458
:100DE000F70098E0E92EF12C0E94B100882E83E0F4
:100DF00092E00E94D40381E090E00E94FC038CEC1E
:100E000091E00E94D403882D0E94D60381E0E81A65
:100E1000F10851F748E050E0B801CE0101960E9478
:100E20009B087C010E9447024AE050E00E94B10307
:100E300082E192E00E94D40381E090E0EF2811F477
:100E400090E080E00E94E9030E9447024AE050E0FF
:100E50000E94B10386E791E00E94D4038EE40E94D1
:100E6000F70083E70E94F70084E50E94F70087E817
:100E70000E94F70061E070E080E090E00E941502BF
:100E80000E9447024AE050E00E94B10383E392E0EF
:100E90000E94D4030E9424010E9447024AE050E0CD
:100EA0000E94B1038EE592E00E94D403C8010E9423
:100EB0005D010E9447024AE050E00E94B1038FE6C4
:100EC00092E00E94D40384E40E94F7000E9447024B
:100ED0004AE050E00E94B1038DE792E00E94D40303
:100EE00061E070E080E090E00E9415020E944702FD
:100EF0004AE050E00E94B1038AE892E00E94D403E5
:100F00000E9424010E9447024AE050E00E94B1037F
:100F10008EE592E00E94D403C8010E945D010E9408
:100F200047024AE050E00E94B1038BEA91E00E9440
:100F3000D4038EEB0E94F70089E0E82EF12C0E948A
:100F4000B100882E83E092E00E94D40381E090E01B
:100F50000E94FC038CEC91E00E94D403882D0E9437
:100F6000D60391E0E91AF10851F761E070E080E002
:100F700090E00E9415020E9447024AE050E00E9461
:100F8000B10382EB92E00E94D4030E9424010E94EC
:100F900047024AE050E00E94B1038EE592E00E94D1
:100FA000D403C8010E945D010E9447024AE050E05C
:100FB0000E94B10386EE92E00E94D40388E40E946E
:100FC000F7000E9447024AE050E00E94B1038CEF14
:100FD00092E00E94D4030E9424010E94210188EB28
:100FE0000E94F7000E948C00182F0E9447024AE0DE
:100FF00050E00E94B1038AE293E00E94D40381E0B2
:1010000090E0111102C090E080E00E94E9030E948C
:1010100047024AE050E00E94B10389E393E00E9456
:10102000D4030E9424010E9421018EEB0E94F7004C
:1010300009E010E00E94B100F82E83E092E00E94E7
:10104000D40381E090E00E94FC038CEC91E00E94CC
:10105000D4038F2D0E94D6030150110959F78EE653
:1010600093E00E9460038AE191E00E94600368E8D7
:1010700073E180E090E00E941502B0CDEE2DF0E02B
:10108000F81211C0809134041817A8F4DF01A75D8D
:10109000BB4F13968C91802381F4F12C193010F4FE
:1010A00010933504812EE75DFB4F8381902F90953F
:1010B000892383830BC08113F0CFEE2DF0E0E75D31
:1010C000FB4F8381802B8383FF24F3948F2D0E9419
:1010D000C7001F5F000F11F4E39401E087E08E1555
:1010E00008F08FCD99CDA1E21A2EAA1BBB1BFD01E2
:1010F0000DC0AA1FBB1FEE1FFF1FA217B307E407F7
:10110000F50720F0A21BB30BE40BF50B661F771F4E
:10111000881F991F1A9469F760957095809590952E
:101120009B01AC01BD01CF010895EE0FFF1F05909B
:10113000F491E02D0994FB01DC0104C08D91019034
:10114000801921F441505040C8F7881B990B08952D
:04115000F894FFCF41
:101154009F9D876799C4F70700000000F3025302BC
:1011640080024003B1028F02A3020D0A002B002E5D
:10117400004E6F206D6F72652061646472657373D5
:1011840065732E0A00666F756E6420646576696304
:1011940065210A0020726573657474696E67206442
:1011A4006576696365206265666F7265207772692A
:1011B40074650A0020736B697070696E67206465DA
:1011C400766963650A002077726974696E672073B3
:1011D4006372617463687061642E0A0020726573BF
:1011E400657474696E6720646576696365206265F9
:1011F400666F726520726561640A002072656164BD
:10120400696E6720736372617463687061642E0A27
:101214000072656164206279746520002C20726517
:101224006365697665643A20002072656164696E5D
:1012340067207363726174636870616420646F6EA5
:10124400652E0A002072656164696E6720726F6D95
:101254002E0A007265616420726F6D206279746574
:1012640020002072656164696E6720646F6E65207A
:10127400646F6E652E2061646472206D61746368AE
:101284003A200020726573657474696E6720646522
:1012940076696365206265666F72652073656C6547
:1012A4006374202620636F6E766572740A0020735F
:1012B400656C656374696E6720726F6D2E0A002019
:1012C400636F6E76657274696E672E0A0020636FB1
:1012D4006E7665727465642E0A0020726573657497
:1012E40074696E6720646576696365206265666FFC
:1012F40072652073656C6563742026207265616471
:101304000A0020726573657474696E67206465767B
:10131400696365206265666F72652073656C6563D9
:1013240074202620636F707920736372617463681C
:10133400207061640A0020636F7079696E6720739E
:101344006372617463687061642E0A00207265734D
:10135400657474696E672064657669636520626587
:10136400666F72652073656C6563742026207265F0
:1013740063616C6C207061640A0020726563616C47
:101384006C20646F6E653A20002072657365747416
:10139400696E6720646576696365206265666F724D
:1013A400652073656C656374202620726561642012
:1013B400616674657220726563616C6C0A003D3D00
:1013C4003D3D3D3D3D3D3D3D3D3D3D3D3D3D3D3D49
:0213D4003D00DA
:00000001FF
